:020000040800F2
:1000000000040020C1010008170200080F020008C8
:100010001302000809020008AD03000800000000F8
:100020000000000000000000000000001B020008AB
:100030000D0200080000000019020008410300083A
:10004000DB010008DB010008DB010008DB01000820
:10005000DB010008DB010008DB010008DB01000810
:10006000DB010008DB010008DB010008DB01000800
:10007000DB010008DB010008DB010008DB010008F0
:10008000DB010008DB010008DB010008DB010008E0
:10009000DB010008DB010008DB010008DB010008D0
:1000A000DB010008DB010008DB010008DB010008C0
:1000B000DB010008DB010008DB010008DB010008B0
:1000C000DB010008DB010008DB010008DB010008A0
:1000D000DB010008DB010008DB010008DB01000890
:1000E000DB010008DB010008DB010008DB01000880
:1000F000DB010008DB010008DB010008DB01000870
:10010000DB010008DB010008DB010008DB0100085F
:10011000DB010008DB010008DB010008DB0100084F
:10012000DB010008DB010008DB010008DB0100083F
:10013000DB010008DB010008DB010008DB0100082F
:10014000DB010008DB010008DB010008DB0100081F
:10015000DB010008DB010008DB010008DB0100080F
:10016000DB010008DB010008DB010008DB010008FF
:10017000DB010008DB010008DB010008DB010008EF
:10018000DB010008DB010008DB010008DB010008DF
:10019000DB010008DB010008DB010008DB010008CF
:1001A000DB010008DB010008DB010008DFF80CD0F0
:1001B00000F018F800480047CF03000800040020B2
:1001C0000648804706480047FEE7FEE7FEE7FEE7F1
:1001D000FEE7FEE7FEE7FEE7FEE7FEE74503000871
:1001E000AD010008064C074D06E0E06840F0010351
:1001F00094E8070098471034AC42F6D3FFF7DAFFD3
:10020000D4030008E403000800BFFEE7704700BF06
:10021000FEE700BFFEE77047704770470CB500204F
:10022000019000904248006840F4803040490860E6
:1002300000BF3F48006800F4003000900198401C67
:100240000190009818B90198B0F5A04FF1D1384845
:10025000006800F4003010B10120009001E000209F
:1002600000900098012803D132483149091D0860E7
:100270002F484030006840F080502D4940310860E0
:100280002D48006840F440402B4908602848083059
:1002900000682749083108600846006840F40040BB
:1002A00008600846006840F4A050086020480068D4
:1002B00040F080701E49086000BF1D48006800F0D3
:1002C00000700028F9D01C48006840F480301A49BA
:1002D000086000BF1848406800F480300028F9D05A
:1002E0001548006840F400301349086000BF124808
:1002F000406800F400300028F9D040F205700F4942
:1003000008600B480830006820F0030008490831F5
:1003100008600846006840F00200086000BF04481A
:100320000830006800F00C000828F8D10CBD00006F
:1003300000380240085A400700700040003C02406C
:100340007047000010B51548006840F4700013496C
:1003500008601348006840F001001149086000205F
:100360000F49083108600E4800680E4908400C49E2
:1003700008600D48091D0860081F006820F48020EF
:10038000091F0860002006490C310860FFF746FF8E
:100390004FF0006001498039086010BD88ED00E031
:1003A00000380240FFFFF6FE1030002400BFFEE7D9
:1003B00002E008C8121F08C1002AFAD1704770472E
:1003C000002001E001C1121F002AFBD1704700BFCD
:1003D000FEE70000E4030008000000200004000025
:0403E000C00300084E
:04000005080001AD41
:00000001FF
